:100000000C9434000C9451000C9451000C94510049
:100010000C9451000C9451000C9451000C9451001C
:100020000C9451000C9451000C9451000C9451000C
:100030000C9451000C9451000C9400020C9451004B
:100040000C9451000C9451000C9451000C945100EC
:100050000C9451000C94A2000C9451000C9451008B
:100060000C9451000C94510011241FBECFEFD8E026
:10007000DEBFCDBF11E0A0E0B1E0E8E9F6E002C0EC
:1000800005900D92A230B107D9F721E0A2E0B1E0CE
:1000900001C01D92A731B207E1F70E94D3020C9470
:1000A0004A030C9400009093C5008093C40088E13B
:1000B0008093C10086E08093C20008959091C000B3
:1000C00095FFFCCF8093C6000895CF93DF93EC019A
:1000D0008881882349F00E945E008981882321F06D
:1000E000DF91CF910C945E00DF91CF910895CF9373
:1000F000DF931F92CDB7DEB789830F90DF91CF9149
:100100000895419A089541980895429A0895429811
:10011000089580E480937C008FE880937A0081E0EA
:1001200080937E00089586E087B90C9489008091C1
:100130000001909101010895EAE7F0E08081806478
:10014000808308951F920F920FB60F9211248F9300
:100150009F93809178009091790090930101809312
:1001600000019F918F910F900FBE0F901F901895D7
:100170000F931F93CF93DF93CDB7DEB729970FB6B9
:10018000F894DEBF0FBECDBF09831A832B833C8357
:100190004D835E836F837887898780910301909177
:1001A000040129E0289FD001299FB00D1124AB5FE5
:1001B000BE4FFE01319601900D922A95E1F701960E
:1001C000909304018093030129960FB6F894DEBF43
:1001D0000FBECDBFDF91CF911F910F9108958F92E8
:1001E0009F92AF92BF92CF92DF92EF92FF920F93C6
:1001F0001F93CF93DF93CDB7DEB729970FB6F8944F
:10020000DEBF0FBECDBF1A832B835E836F837887DB
:100210008987F701009103010983DD82CC82808107
:100220008FEF80835A2DAE82BF82782D8886998683
:100230001E2DFB82EA822B813C814D816B2D892D05
:100240000E94B80029960FB6F894DEBF0FBECDBF4E
:10025000DF91CF911F910F91FF90EF90DF90CF90A2
:10026000BF90AF909F908F90089584B5826084BDB9
:1002700084E187BDEEE6F0E080818260808385B511
:10028000856085BD089590930401809303010895CE
:100290000F931F93CF93DF93CDB7DEB729970FB698
:1002A000F894DEBF0FBECDBF09831A832B833C8336
:1002B0004D835E836F8378878987E885F9858081A0
:1002C00090E029960FB6F894DEBF0FBECDBFDF9148
:1002D000CF911F910F9108950F931F93CF93DF93A9
:1002E000CDB7DEB729970FB6F894DEBF0FBECDBFEE
:1002F00009831A832B833C834D835E836F837887C6
:100300008987EE81FF81808190E029960FB6F8946D
:10031000DEBF0FBECDBFDF91CF911F910F9108952A
:1003200029E0269FF001279FF00D1124EB5FFE4F7F
:10033000DC0101900D922A95E1F708950F931F9328
:10034000CF93DF93CDB7DEB762970FB6F894DEBFD9
:100350000FBECDBF602F70E0CE0101960E949001CC
:10036000EE81FF8181E0808362960FB6F894DEBF54
:100370000FBECDBFDF91CF911F910F9108950F93C5
:100380001F93CF93DF93CDB7DEB762970FB6F89484
:10039000DEBF0FBECDBF602F70E0CE0101960E9480
:1003A0009001EE81FF8182E0808362960FB6F8941F
:1003B000DEBF0FBECDBFDF91CF911F910F9108958A
:1003C0000F931F93CF93DF93CDB7DEB762970FB62E
:1003D000F894DEBF0FBECDBF602F70E0CE01019656
:1003E0000E949001EE81FF81108262960FB6F89410
:1003F000DEBF0FBECDBFDF91CF911F910F9108954A
:100400001F920F920FB60F921124FF920F931F931A
:100410002F933F934F935F936F937F938F939F930C
:10042000AF93BF93EF93FF93CF93DF93CDB7DEB737
:10043000CC56D109DEBFCDBFF89400E010E080912A
:10044000030190910401081719070CF08EC0B80140
:10045000CE018C599F4F0E949001AB96EEADFFAD3F
:10046000AB97F08081E0F81621F082E0F81631F1C8
:1004700044C0B801CE01855A9F4F0E949001A496B6
:10048000EEADFFADA4978081B801843060F4CE0159
:100490008E5A9F4F0E9490016B96EEADFFAD6B9709
:1004A00080818F5F29C0CE01875B9F4F0E949001A2
:1004B0006296EEADFFAD6297F0821FC0B801CE012B
:1004C000805C9F4F0E9490012996EEADFFAD299769
:1004D0008081B801823048F0CE01C7960E94900119
:1004E000EEADFFAD8081815007C0CE018E960E9497
:1004F0009001EDA9FEA984E08083B801CE01859624
:100500000E949001ECA5FDA580818230C9F058F4CD
:10051000813041F5B801CE014C960E949001EF8DDB
:10052000F8A185E11EC08330A1F08430D9F4B80170
:10053000CE0101960E949001EC81FD8183E111C002
:10054000B801CE0143960E949001EE89FF898DE0AB
:1005500008C0B801CE010A960E949001ED85FE8583
:100560008BE080830F5F1F4F6ACF7894C459DF4FB1
:100570000FB6F894DEBF0FBECDBFDF91CF91FF91D4
:10058000EF91BF91AF919F918F917F916F915F910B
:100590004F913F912F911F910F91FF900F900FBEA0
:1005A0000F901F901895CF93DF93CDB7DEB72B97A1
:1005B0000FB6F894DEBF0FBECDBF789481E08B8775
:1005C0008A87CE010A964C0101965C0185E2C82E0D
:1005D000D12C94E2E92EF12C09811A812B813C81E6
:1005E0004D815E816F81788589850E94EF000E9430
:1005F00035019FEF23ED80E3915020408040E1F7EB
:1006000000C0000009811A812B813C814D815E81EF
:100610006F81788589850E94E0019FEF23ED80E35B
:10062000915020408040E1F700C0000009811A810C
:100630002B813C814D815E816F81788589850E9407
:10064000BF019FEF23ED80E3915020408040E1F710
:1006500000C0000009811A812B813C814D815E819F
:100660006F81788589850E94E0019FEF23ED80E30B
:10067000915020408040E1F700C0000009811A81BC
:100680002B813C814D815E816F81788589850E94B7
:080690009E01AFCFF894FFCFEB
:0206980001005F
:00000001FF
