:100000000C9434000C9451000C9451000C94510049
:100010000C9451000C9451000C9451000C9451001C
:100020000C9451000C9451000C9451000C9451000C
:100030000C9451000C9451000C9465020C945100E6
:100040000C9451000C9451000C9451000C945100EC
:100050000C9451000C949C000C9451000C94510091
:100060000C9451000C94510011241FBECFEFD8E026
:10007000DEBFCDBF11E0A0E0B1E0E2E0F6E002C0FB
:1000800005900D92A230B107D9F721E0A2E0B1E0CE
:1000900001C01D92A235B207E1F70E94C1020C9483
:1000A000FF020C9400009093C5008093C40088E187
:1000B0008093C10086E08093C20008959091C000B3
:1000C00095FFFCCF8093C6000895CF93DF93EC019A
:1000D0008991882319F00E945E00FACFDF91CF91B9
:1000E0000895CF93DF931F92CDB7DEB789830F902A
:1000F000DF91CF910895419A089541980895429AC9
:1001000008954298089580E480937C008FE880935E
:100110007A0082E080937E00089584E087B90C9491
:10012000830080910001909101010895EAE7F0E0D9
:1001300080818064808308951F920F920FB60F9282
:1001400011248F939F9380917800909179009093E0
:100150000101809300019F918F910F900FBE0F902E
:100160001F9018951092090181E080930801109268
:10017000070180930401089581E0809309010895A7
:1001800082E080930901089510920901089581E0A9
:1001900080930701089582E08093070108951092EB
:1001A0000701089580910801823059F018F48130D8
:1001B00031F00895833039F0843039F0089585E1C5
:1001C00005C08DE003C08BE001C083E185B90895CF
:1001D00080910401823059F018F4813031F0089593
:1001E000833039F0843039F0089584E505C084E324
:1001F00003C08CE201C08CE48BB9089580910501A5
:100200009091060108950F931F93CF93DF93CDB77D
:10021000DEB729970FB6F894DEBF0FBECDBF0983B6
:100220001A832B833C834D835E836F837887898712
:10023000A091030189E0A89FD0011124A65FBE4FC1
:1002400089E0FE01319601900D928A95E1F7809147
:1002500003018F5F8093030129960FB6F894DEBFE8
:100260000FBECDBFDF91CF911F910F9108958F9257
:100270009F92AF92BF92CF92DF92EF92FF920F9335
:100280001F93CF93DF93CDB7DEB729970FB6F894BE
:10029000DEBF0FBECDBF09831A832B833C834D8302
:1002A0005E836F8378878987F70180910301898353
:1002B000FB82EA82DD82CC8280818FEF80835A2D9F
:1002C000AE82BF82782D8886998609811A812B811A
:1002D0003C814D816B2D892D0E94030129960FB61B
:1002E000F894DEBF0FBECDBFDF91CF911F910F916C
:1002F000FF90EF90DF90CF90BF90AF909F908F9046
:10030000089584B5826084BD84E187BDEEE6F0E0A7
:1003100080818260808385B5856085BD08958093E6
:10032000030108950F931F93CF93DF93CDB7DEB7EB
:1003300029970FB6F894DEBF0FBECDBF09831A838D
:100340002B833C834D835E836F8378878987E88521
:10035000F985808190E029960FB6F894DEBF0FBE34
:10036000CDBFDF91CF911F910F9108950F931F93F0
:10037000CF93DF93CDB7DEB729970FB6F894DEBFE2
:100380000FBECDBF09831A832B833C834D835E83CD
:100390006F8378878987EE81FF81808190E029963D
:1003A0000FB6F894DEBF0FBECDBFDF91CF911F9186
:1003B0000F91089529E0269FF001279FF00D112449
:1003C000E65FFE4FDC0101900D922A95E1F708955A
:1003D0000F931F93CF93DF93CDB7DEB762970FB61E
:1003E000F894DEBF0FBECDBF0A871B872C873D87E1
:1003F0004E875F87688B798B8A8B6A8570E0CE0128
:1004000001960E94DA01EE81FF8181E0808362968D
:100410000FB6F894DEBF0FBECDBFDF91CF911F9115
:100420000F9108950F931F93CF93DF93CDB7DEB74E
:1004300062970FB6F894DEBF0FBECDBF0A871B8749
:100440002C873D874E875F87688B798B8A8B6A857F
:1004500070E0CE0101960E94DA01EE81FF8182E018
:10046000808362960FB6F894DEBF0FBECDBFDF91DA
:10047000CF911F910F9108950F931F93CF93DF9307
:10048000CDB7DEB762970FB6F894DEBF0FBECDBF13
:100490000A871B872C873D874E875F87688B798B00
:1004A0008A8B6A8570E0CE0101960E94DA01EE81A6
:1004B000FF81108262960FB6F894DEBF0FBECDBFEB
:1004C000DF91CF911F910F9108951F920F920FB658
:1004D0000F9211242F933F934F935F936F937F93CA
:1004E0008F939F93AF93BF93EF93FF93F894809173
:1004F0000901813019F0823049F013C09091080150
:10050000943068F4809108018F5F09C080910801E0
:10051000823020F080910801815001C084E08093F6
:10052000080180910401813019F0823049F013C034
:1005300090910401943068F4809104018F5F09C0A8
:1005400080910401823020F080910401815001C02B
:1005500084E0809304010E94D2000E94E800789415
:10056000FF91EF91BF91AF919F918F917F916F918B
:100570005F914F913F912F910F900FBE0F901F9061
:10058000189578940E94B2000E94BC000E94C70097
:100590000E9481012FEF87EA91E621508040904030
:1005A000E1F700C000000E94C4000E94CF002FEFBE
:1005B00083ED90E3215080409040E1F700C00000BF
:1005C0000E94C0000E94CB002FEF87EA91E62150E5
:1005D00080409040E1F700C000000E94C4000E94EB
:1005E000CF002FEF83ED90E3215080409040E1F762
:1005F00000C000000E94BC000E94C700CBCFF8944E
:02060000FFCF2A
:020602000100F5
:00000001FF
